{
  "_format": "hh-sol-artifact-1",
  "contractName": "StockContract",
  "sourceName": "contracts/StockContract.sol",
  "abi": [
    {
      "anonymous": false,
      "inputs": [
        {
          "indexed": true,
          "internalType": "address",
          "name": "buyer",
          "type": "address"
        },
        {
          "indexed": false,
          "internalType": "uint256",
          "name": "amount",
          "type": "uint256"
        },
        {
          "indexed": false,
          "internalType": "uint256",
          "name": "remainingStock",
          "type": "uint256"
        }
      ],
      "name": "StockBought",
      "type": "event"
    },
    {
      "anonymous": false,
      "inputs": [
        {
          "indexed": true,
          "internalType": "address",
          "name": "from",
          "type": "address"
        },
        {
          "indexed": true,
          "internalType": "address",
          "name": "to",
          "type": "address"
        },
        {
          "indexed": false,
          "internalType": "uint256",
          "name": "amount",
          "type": "uint256"
        }
      ],
      "name": "StockTransferred",
      "type": "event"
    },
    {
      "inputs": [
        {
          "internalType": "address",
          "name": "account",
          "type": "address"
        }
      ],
      "name": "balanceOf",
      "outputs": [
        {
          "internalType": "uint256",
          "name": "",
          "type": "uint256"
        }
      ],
      "stateMutability": "view",
      "type": "function"
    },
    {
      "inputs": [
        {
          "internalType": "address",
          "name": "",
          "type": "address"
        }
      ],
      "name": "balances",
      "outputs": [
        {
          "internalType": "uint256",
          "name": "",
          "type": "uint256"
        }
      ],
      "stateMutability": "view",
      "type": "function"
    },
    {
      "inputs": [
        {
          "internalType": "uint256",
          "name": "amount",
          "type": "uint256"
        }
      ],
      "name": "buyStock",
      "outputs": [],
      "stateMutability": "nonpayable",
      "type": "function"
    },
    {
      "inputs": [],
      "name": "decimals",
      "outputs": [
        {
          "internalType": "uint8",
          "name": "",
          "type": "uint8"
        }
      ],
      "stateMutability": "pure",
      "type": "function"
    },
    {
      "inputs": [
        {
          "internalType": "address",
          "name": "account",
          "type": "address"
        }
      ],
      "name": "getBalance",
      "outputs": [
        {
          "internalType": "uint256",
          "name": "",
          "type": "uint256"
        }
      ],
      "stateMutability": "view",
      "type": "function"
    },
    {
      "inputs": [],
      "name": "getRemainingStock",
      "outputs": [
        {
          "internalType": "uint256",
          "name": "",
          "type": "uint256"
        }
      ],
      "stateMutability": "view",
      "type": "function"
    },
    {
      "inputs": [
        {
          "internalType": "address",
          "name": "account",
          "type": "address"
        }
      ],
      "name": "getStocksByAddress",
      "outputs": [
        {
          "internalType": "uint256",
          "name": "",
          "type": "uint256"
        }
      ],
      "stateMutability": "view",
      "type": "function"
    },
    {
      "inputs": [
        {
          "internalType": "address",
          "name": "account",
          "type": "address"
        }
      ],
      "name": "getTransactionHistory",
      "outputs": [
        {
          "internalType": "uint256",
          "name": "",
          "type": "uint256"
        }
      ],
      "stateMutability": "view",
      "type": "function"
    },
    {
      "inputs": [],
      "name": "name",
      "outputs": [
        {
          "internalType": "string",
          "name": "",
          "type": "string"
        }
      ],
      "stateMutability": "pure",
      "type": "function"
    },
    {
      "inputs": [
        {
          "internalType": "address",
          "name": "",
          "type": "address"
        }
      ],
      "name": "stockHistory",
      "outputs": [
        {
          "internalType": "uint256",
          "name": "",
          "type": "uint256"
        }
      ],
      "stateMutability": "view",
      "type": "function"
    },
    {
      "inputs": [],
      "name": "stockName",
      "outputs": [
        {
          "internalType": "string",
          "name": "",
          "type": "string"
        }
      ],
      "stateMutability": "view",
      "type": "function"
    },
    {
      "inputs": [],
      "name": "symbol",
      "outputs": [
        {
          "internalType": "string",
          "name": "",
          "type": "string"
        }
      ],
      "stateMutability": "pure",
      "type": "function"
    },
    {
      "inputs": [],
      "name": "totalStock",
      "outputs": [
        {
          "internalType": "uint256",
          "name": "",
          "type": "uint256"
        }
      ],
      "stateMutability": "view",
      "type": "function"
    },
    {
      "inputs": [],
      "name": "totalSupply",
      "outputs": [
        {
          "internalType": "uint256",
          "name": "",
          "type": "uint256"
        }
      ],
      "stateMutability": "pure",
      "type": "function"
    },
    {
      "inputs": [
        {
          "internalType": "address",
          "name": "to",
          "type": "address"
        },
        {
          "internalType": "uint256",
          "name": "amount",
          "type": "uint256"
        }
      ],
      "name": "transferStock",
      "outputs": [],
      "stateMutability": "nonpayable",
      "type": "function"
    }
  ],
  "bytecode": "0x60806040526040518060400160405280600481526020017f32333330000000000000000000000000000000000000000000000000000000008152506000908161004891906102b1565b506103e860015534801561005b57600080fd5b50610383565b600081519050919050565b7f4e487b7100000000000000000000000000000000000000000000000000000000600052604160045260246000fd5b7f4e487b7100000000000000000000000000000000000000000000000000000000600052602260045260246000fd5b600060028204905060018216806100e257607f821691505b6020821081036100f5576100f461009b565b5b50919050565b60008190508160005260206000209050919050565b60006020601f8301049050919050565b600082821b905092915050565b60006008830261015d7fffffffffffffffffffffffffffffffffffffffffffffffffffffffffffffffff82610120565b6101678683610120565b95508019841693508086168417925050509392505050565b6000819050919050565b6000819050919050565b60006101ae6101a96101a48461017f565b610189565b61017f565b9050919050565b6000819050919050565b6101c883610193565b6101dc6101d4826101b5565b84845461012d565b825550505050565b600090565b6101f16101e4565b6101fc8184846101bf565b505050565b5b81811015610220576102156000826101e9565b600181019050610202565b5050565b601f82111561026557610236816100fb565b61023f84610110565b8101602085101561024e578190505b61026261025a85610110565b830182610201565b50505b505050565b600082821c905092915050565b60006102886000198460080261026a565b1980831691505092915050565b60006102a18383610277565b9150826002028217905092915050565b6102ba82610061565b67ffffffffffffffff8111156102d3576102d261006c565b5b6102dd82546100ca565b6102e8828285610224565b600060209050601f83116001811461031b5760008415610309578287015190505b6103138582610295565b86555061037b565b601f198416610329866100fb565b60005b828110156103515784890151825560018201915060208501945060208101905061032c565b8683101561036e578489015161036a601f891682610277565b8355505b6001600288020188555050505b505050505050565b610e93806103926000396000f3fe608060405234801561001057600080fd5b50600436106100f55760003560e01c806370a082311161009757806395d89b411161006657806395d89b4114610288578063b1a951da146102a6578063d20cf0e8146102c4578063f8b2cb4f146102f4576100f5565b806370a08231146101dc578063791b7a6b1461020c5780637f59e5341461023c5780637fae46b714610258576100f5565b806318160ddd116100d357806318160ddd146101525780631ff43c191461017057806327e235e31461018e578063313ce567146101be576100f5565b806306fdde03146100fa5780630923aaeb14610118578063148f2a9c14610136575b600080fd5b610102610324565b60405161010f91906109d7565b60405180910390f35b610120610361565b60405161012d9190610a12565b60405180910390f35b610150600480360381019061014b9190610a5e565b61036b565b005b61015a61050d565b6040516101679190610a12565b60405180910390f35b610178610517565b60405161018591906109d7565b60405180910390f35b6101a860048036038101906101a39190610ae9565b6105a5565b6040516101b59190610a12565b60405180910390f35b6101c66105bd565b6040516101d39190610b32565b60405180910390f35b6101f660048036038101906101f19190610ae9565b6105c2565b6040516102039190610a12565b60405180910390f35b61022660048036038101906102219190610ae9565b61060b565b6040516102339190610a12565b60405180910390f35b61025660048036038101906102519190610b4d565b610623565b005b610272600480360381019061026d9190610ae9565b610829565b60405161027f9190610a12565b60405180910390f35b610290610872565b60405161029d91906109d7565b60405180910390f35b6102ae6108af565b6040516102bb9190610a12565b60405180910390f35b6102de60048036038101906102d99190610ae9565b6108b5565b6040516102eb9190610a12565b60405180910390f35b61030e60048036038101906103099190610ae9565b6108fe565b60405161031b9190610a12565b60405180910390f35b60606040518060400160405280600481526020017f54534d4300000000000000000000000000000000000000000000000000000000815250905090565b6000600154905090565b600181146103ae576040517f08c379a00000000000000000000000000000000000000000000000000000000081526004016103a590610bd9565b60405180910390fd5b8060015410156103f3576040517f08c379a00000000000000000000000000000000000000000000000000000000081526004016103ea90610c45565b60405180910390fd5b80600160008282546104059190610c94565b9250508190555080600260003373ffffffffffffffffffffffffffffffffffffffff1673ffffffffffffffffffffffffffffffffffffffff168152602001908152602001600020600082825461045b9190610cc8565b9250508190555080600360003373ffffffffffffffffffffffffffffffffffffffff1673ffffffffffffffffffffffffffffffffffffffff16815260200190815260200160002060008282546104b19190610cc8565b925050819055503373ffffffffffffffffffffffffffffffffffffffff167f1560b71ca6695825842f12e8721dc7f437286c08deb7c7ebc708bb3bdc3d01c582600154604051610502929190610cfc565b60405180910390a250565b60006103e8905090565b6000805461052490610d54565b80601f016020809104026020016040519081016040528092919081815260200182805461055090610d54565b801561059d5780601f106105725761010080835404028352916020019161059d565b820191906000526020600020905b81548152906001019060200180831161058057829003601f168201915b505050505081565b60026020528060005260406000206000915090505481565b600090565b6000600260008373ffffffffffffffffffffffffffffffffffffffff1673ffffffffffffffffffffffffffffffffffffffff168152602001908152602001600020549050919050565b60036020528060005260406000206000915090505481565b80600260003373ffffffffffffffffffffffffffffffffffffffff1673ffffffffffffffffffffffffffffffffffffffff1681526020019081526020016000205410156106a5576040517f08c379a000000000000000000000000000000000000000000000000000000000815260040161069c90610dd1565b60405180910390fd5b600073ffffffffffffffffffffffffffffffffffffffff168273ffffffffffffffffffffffffffffffffffffffff1603610714576040517f08c379a000000000000000000000000000000000000000000000000000000000815260040161070b90610e3d565b60405180910390fd5b80600260003373ffffffffffffffffffffffffffffffffffffffff1673ffffffffffffffffffffffffffffffffffffffff16815260200190815260200160002060008282546107639190610c94565b9250508190555080600260008473ffffffffffffffffffffffffffffffffffffffff1673ffffffffffffffffffffffffffffffffffffffff16815260200190815260200160002060008282546107b99190610cc8565b925050819055508173ffffffffffffffffffffffffffffffffffffffff163373ffffffffffffffffffffffffffffffffffffffff167f6bca8fa57973baecf480f0f784a6c6549e10cd7673db79b691a8051864dd29c98360405161081d9190610a12565b60405180910390a35050565b6000600260008373ffffffffffffffffffffffffffffffffffffffff1673ffffffffffffffffffffffffffffffffffffffff168152602001908152602001600020549050919050565b60606040518060400160405280600481526020017f3233333000000000000000000000000000000000000000000000000000000000815250905090565b60015481565b6000600360008373ffffffffffffffffffffffffffffffffffffffff1673ffffffffffffffffffffffffffffffffffffffff168152602001908152602001600020549050919050565b6000600260008373ffffffffffffffffffffffffffffffffffffffff1673ffffffffffffffffffffffffffffffffffffffff168152602001908152602001600020549050919050565b600081519050919050565b600082825260208201905092915050565b60005b83811015610981578082015181840152602081019050610966565b60008484015250505050565b6000601f19601f8301169050919050565b60006109a982610947565b6109b38185610952565b93506109c3818560208601610963565b6109cc8161098d565b840191505092915050565b600060208201905081810360008301526109f1818461099e565b905092915050565b6000819050919050565b610a0c816109f9565b82525050565b6000602082019050610a276000830184610a03565b92915050565b600080fd5b610a3b816109f9565b8114610a4657600080fd5b50565b600081359050610a5881610a32565b92915050565b600060208284031215610a7457610a73610a2d565b5b6000610a8284828501610a49565b91505092915050565b600073ffffffffffffffffffffffffffffffffffffffff82169050919050565b6000610ab682610a8b565b9050919050565b610ac681610aab565b8114610ad157600080fd5b50565b600081359050610ae381610abd565b92915050565b600060208284031215610aff57610afe610a2d565b5b6000610b0d84828501610ad4565b91505092915050565b600060ff82169050919050565b610b2c81610b16565b82525050565b6000602082019050610b476000830184610b23565b92915050565b60008060408385031215610b6457610b63610a2d565b5b6000610b7285828601610ad4565b9250506020610b8385828601610a49565b9150509250929050565b7f6a75737420627579203120636f696e0000000000000000000000000000000000600082015250565b6000610bc3600f83610952565b9150610bce82610b8d565b602082019050919050565b60006020820190508181036000830152610bf281610bb6565b9050919050565b7f6e6f7420656e6f75676800000000000000000000000000000000000000000000600082015250565b6000610c2f600a83610952565b9150610c3a82610bf9565b602082019050919050565b60006020820190508181036000830152610c5e81610c22565b9050919050565b7f4e487b7100000000000000000000000000000000000000000000000000000000600052601160045260246000fd5b6000610c9f826109f9565b9150610caa836109f9565b9250828203905081811115610cc257610cc1610c65565b5b92915050565b6000610cd3826109f9565b9150610cde836109f9565b9250828201905080821115610cf657610cf5610c65565b5b92915050565b6000604082019050610d116000830185610a03565b610d1e6020830184610a03565b9392505050565b7f4e487b7100000000000000000000000000000000000000000000000000000000600052602260045260246000fd5b60006002820490506001821680610d6c57607f821691505b602082108103610d7f57610d7e610d25565b5b50919050565b7f4e6f7420656e6f7567682073746f636b20746f207472616e7366657200000000600082015250565b6000610dbb601c83610952565b9150610dc682610d85565b602082019050919050565b60006020820190508181036000830152610dea81610dae565b9050919050565b7f496e76616c696420616464726573730000000000000000000000000000000000600082015250565b6000610e27600f83610952565b9150610e3282610df1565b602082019050919050565b60006020820190508181036000830152610e5681610e1a565b905091905056fea264697066735822122039724aa855ef322899d15e6f6f26bcc1f0d58e297240fb5d55203b059d23b30d64736f6c634300081c0033",
  "linkReferences": {},
  "deployedLinkReferences": {}
}